:020000000828CE
:020008001F28AF
:100010000313831605108701FF308600FF3096001A
:1000200003178316880189010313831285010608CB
:10003000F2000B108B158B17013085061C28F00081
:10004000030EF100031383120B1C4E280608F30065
:100050007206F4007308F20074183D28F4183F2863
:1000600074194128F4194328741A4528F41A4728AA
:10007000741B4928F41B4B284D2800304C280130B4
:100080004C2802304C2803304C2804304C280530D2
:100090004C2806304C28073085000B10710E830069
:0600A000F00E700E0900D5
:04400E00F120FF3F5F
:00000001FF
