:020000000828CE
:020008001D28B1
:100010000313831685018701FF308600FF309600A9
:1000200003178316880189010313831285010608CB
:10003000F2000B108B158B171C28F000030EF1003B
:10004000031383120B1C4C280608F3007206F400FD
:100050007308F20074183B28F4183D2874193F28DF
:10006000F4194128741A4328F41A4528741B4728A8
:10007000F41B49284B2800304A2801304A28023016
:100080004A2803304A2804304A2805304A280630D6
:100090004A28073085000B10710E8300F00E700E99
:0200A000090055
:04400E00F120FF3F5F
:00000001FF
