:020000000828CE
:020008001F28AF
:10001000031383168701061486149614011303171D
:10002000831688018901031383120608F4010B105B
:100030008B108B150B168B17313087001C2874180A
:100040002528F000030EF1002828F200030EF3002B
:100050000B1C352806080B100708F5003730870001
:100060008B135C207508870041288B1C41288B105E
:10007000741841283630870074148B174D20741083
:10008000412874184828710E8300F00E700E090084
:10009000730E8300F20E720E09004330A00032305E
:1000A000A1005720A10B5128A00B4F280800C830F1
:1000B000A200A20B592808002230A3003230A4006D
:1000C0006620A40B6028A30B5E280800C830A5009A
:0600D000A50B68280800E2
:04400E00F120FF3F5F
:00000001FF
